:044000000240C53283
:01400B003282
:01401300327A
:03401B0002403828
:01402300326A
:01402B003262
:0B40C50075810D1240C1E5826003020E
:0240D00040337B
:0740D2007400440060297432
:0540D900092400F97448
:0540DE00413400FA90DE
:0640E3004109780075A000
:0D40E90000E493F2A308B8000205A0E582F0
:0B40F600B501F1E583B502EC75A0FFF9
:05410100E4F50DF50CD2
:0341060002403341
:054033001240AB80FE0D
:0E403800C0E0C0F0C082C083C002C000C0D093
:0C40460075D000C37403950C7480850DC8
:08405200F063F08095F05005C9
:05405A00E4F50DF50C7A
:07405F00E50C24BDF582E52C
:0C4066000D3440F583E493FA908000F0E4
:0B40720090FFFFE4F0E50C2408F8903C
:0C407D00FFFFE6F07401250CF50CE435A3
:034089000DF50D25
:0E408C00D0D0D000D002D083D082D0F0D0E0CF
:01409A0032F3
:0E409B0075A888758920758B00758D00758855
:0140A90040D6
:0140AA0022F3
:0740AB0012409B750B7375B9
:0640B2000A7B750965752B
:0240B800087787
:0240BA0080FE86
:0140BC0022E1
:0440BD00DFEF7FBFF3
:0340C10075820005
:0140C40022D9
:00000001FF
