:04400000024634320E
:01400B003282
:01401300327A
:01401B003272
:01402300326A
:01402B003262
:0B46340075811E1244A6E5826003029F
:02463F00403306
:0746410074004400602974BD
:05464800842400F97458
:05464D00463400FA9064
:064652004684780075A00B
:0D46580000E493F2A308B8000205A0E5827B
:0B466500B501F1E583B502EC75A0FF84
:08467000750808750904E4F562
:0546780014F513E4F548
:04467D001675150198
:03468100024033C1
:0540330012436480FE51
:0C403800AA828A90AB08EB4AF590E508DC
:03404400B40100C4
:06404700E433FB5AF59082
:01404D002250
:0D404E00AA8274F05AFB8B90AC08EC4BF585
:06405B0090E508B401002D
:0E406100E433FC5BF590EAC454F0FA5302F02D
:0C406F008A90AB08EB4AF590EC5AF590F3
:01407B002222
:0D407C00AA8274F05AFBAC09EC4BF590AC35
:0B40890008EB4204AD09ED4CF590E59A
:0440940008B401006B
:0D409800E433FC5203AD09ED4BF590EAC492
:0D40A50054F0FA5302F0AB09EB4AF590AB72
:0C40B20008EA4203AD09ED4BF590EA521C
:0740BE0004AA09EA4CF59089
:0140C50022D8
:0840C600AA82AB837C007D009F
:0E40CE00C3EC9AED64808BF063F08095F050A7
:0140DC0008DB
:0840DD00000CBC00EC0D80E9B1
:0140E50022B8
:0E40E6007582301240389000641240C6758218
:0E40F400301240389000641240C675823012BF
:0C41020040389000641240C67582201204
:0C410E0040389000641240C675822F12E9
:0C411A00404E9000641240C675820812EE
:0C412600404E9000641240C675820E12DC
:0C413200404E9000641240C675820612D8
:08413E00404E9000641240C6DF
:014146002256
:06414700AA82E5106002EF
:02414D008004EC
:04414F007B808002EF
:024153007BC02F
:08415500EA42038B8212404E86
:01415D00223F
:08415E00AA82AB8385171B85C3
:03416600181C1210
:0B4169004489E5828583F0F51985F09C
:054174001AE4F512F54C
:014179001134
:0C417A00C3E5119406E5126480948050A7
:014186001523
:0B418700E511240AA8E0760074012571
:0541920011F511E435F8
:0541970012F51280DEAC
:06419C00E4F512751106A6
:0641A200C3E5159519E5C7
:0C41A800166480851AF063F08095F050DA
:0141B40024E6
:0841B50074012513F513E43534
:0541BD0014F514E4F507
:0541C2001C751B0A85BD
:0641C7001582851683122B
:0B41CD004489E5828583F0F51585F03C
:0141D80016D0
:0741D900E51124FFF511E5DB
:0641E0001234FFF512E5A8
:0541E60011451270B745
:0541EB00AC19AD1AE55E
:0A41F0001A3395E0FEFF751BA07561
:0641FA001C86751D017515
:0D4200001E008C828D838EF0EFC004C0057F
:0E420D00C006C007124571A882A983AAF0FB63
:0E421B00D007D006D005D004743028F8E4395E
:0C422900F9E43AFAE43BFB880F751BA097
:07423500751C86751D017563
:0D423C001E008C828D838EF0EF124520AAAB
:0B42490082AB83ACF0FD8A198B1A7564
:064254001B10751C2785FC
:06425A001982851A83128F
:0E42600045FCE5828583F02430FAE5F0340059
:07426E00FB8A0E751B1075A1
:064275001C27851982855B
:0B427B001A831245C4E5828583F0F52C
:054286001985F01A7516
:06428B001BE8751C038511
:064291001982851A831258
:0E42970045FCE5828583F02430FAE5F0340022
:0742A500FB8A0D751BE87593
:0642AC001C038519828548
:0B42B2001A831245C4E5828583F0F5F5
:0642BD001985F01AE4F57A
:0542C3001C751B648561
:0642C8001982851A831221
:0E42CE0045FCE5828583F02430FAE5F03400EB
:0742DC00FB8A0CE4F51C75E0
:0642E3001B6485198285B1
:0B42E9001A831245C4E5828583F0F5BE
:0642F4001985F01AE4F543
:0542FA001C751B0A8584
:0642FF001982851A8312EA
:0E43050045FCE5828583F02430FAE5F03400B3
:07431300FB8A0BE4F51C75A9
:06431A001B0A85198285D3
:0D4320001A831245C4E5828583F02430FA2B
:0C432D00E5F03400FB8A0AE51324FFF5DC
:0643390011E51434FFF54C
:01433F00126B
:05434000E51220E71E5C
:08434500E511240AF88682123A
:09434D00407C9000641240C6E5BA
:064356001124FFF511E542
:07435C001234FFF51280DDB1
:014363002237
:0D4364001240E69000641240C675820112FE
:0C437100404E9000641240C690006412A0
:09437D0040C69000641240C675B0
:0C4386001001758205124147900064127E
:0643920040C6E4F51875B9
:08439800170C90000A12415EAF
:0143A00022FA
:0643A100F9E51B451C4577
:0843A7001D451E60777800C37C
:0B43AF0008E51E20E73BE51B25E0F5BC
:0543BA001BE51C33F5BA
:0543BF001CE51D33F5B3
:0543C4001DE51E33F5AC
:0843C9001EE582951BE58395BA
:0743D1001CE5F0951DE995C4
:0843D8001E50D4C3E51E13F5CD
:0543E0001EE51D13F5B0
:0543E5001DE51C13F5AD
:0543EA001CE51B13F5AA
:0143EF001BB2
:0C43F000E582951BFCE583951CFDE5F0C3
:0C43FC00951DFEE9951E4007F98EF08D1E
:03440800838C8220
:07440B00C3E51E13F51EE5D9
:054412001D13F51DE57E
:054417001C13F51CE57B
:07441C001B13F51BD8CEE9CC
:014423002276
:08442400FB7A20E4FCFDFEFF21
:0E442C00E5822582F582E58333F583E5F033E2
:0B443A00F5F0EB33FB4017DAE980429D
:0E444500E5822582F582E58333F583E5F033C9
:05445300F5F0EB33FB66
:0E445800EC33FCED33FDEE33FEEF33FFEC955D
:064466001BED951CEE9514
:08446C001DEF951E4013EC95B5
:084474001BFCED951CFDEE950B
:09447C001DFEEF951EFF438201B5
:02448500DABE9D
:02448700EB2226
:0C448900E582851BF0A4C582C0F0851CF4
:0D449500F0A4D0F025F0C583851BF0A42510
:0444A20083F58322F9
:0344A6007582001C
:0144A90022F0
:0844AA00E51B451C60467A0188
:0744B200E51B25E0F51BE509
:0944B9001C334012F51CE582954C
:0A44C2001BE583951C40030A80E609
:0344CC00C3E51C29
:0744CF0013F51CE51B13F5BA
:0144D6001BCA
:0C44D700C3E582951BF5F0E583951C40C1
:0644E30005F58385F0825F
:0744E900C3E51C13F51CE5FF
:0644F0001B13F51BDAE1CD
:0144F60022A3
:0544F7007A10E4FBFC5B
:0E44FC00E58225E0F582E58333F583EB33FBA3
:0C450A00EC33FCEB951BF5F0EC951C402D
:0745160006FCABF04382013B
:03451D00DADD22C2
:0E452000F9C2D530E715D2D5E4C39582F582F5
:0D452E00E49583F583E495F0F5F0E499F948
:0C453B00E51E30E717B2D5E4C3951BF570
:054547001BE4951CF5CA
:05454C001CE4951DF5C3
:054551001DE4951EF5BC
:014556001E46
:0E455700E91243A130D512E4C39582F582E447
:0B4565009583F583E495F0F5F0E499F0
:014570002228
:0E457100FBC2D530E715D2D5E4C39582F582A2
:0D457F00E49583F583E495F0F5F0E49BFBF3
:0C458C00E51E30E717B2D5E4C3951BF51F
:054598001BE4951CF579
:05459D001CE4951DF572
:0545A2001DE4951EF56B
:0145A7001EF5
:0E45A800EB12442430D514FBE4C39582F58257
:0D45B600E49583F583E495F0F5F0E49BFBBC
:0145C30022D5
:0E45C400C2D5E58330E70DD2D5E4C39582F56C
:0645D20082E49583F583ED
:0C45D800E51C30E70DB2D5E4C3951BF5DF
:0545E4001BE4951CF52D
:0145E9001CB5
:0E45EA001244AA30D50BE4C39582F582E49505
:0345F80083F583C5
:0145FB00229D
:0E45FC00C2D5E58330E70DD2D5E4C39582F534
:06460A0082E49583F583B4
:0C461000E51C30E70DB2D5E4C3951BF5A6
:05461C001BE4951CF5F4
:014621001C7C
:0E4622001244F730D50BE4C39582F582E4957F
:0346300083F5838C
:014633002264
:00000001FF
