:044000000242D43272
:01400B003282
:01401300327A
:03401B0002405709
:01402300326A
:01402B003262
:0B42D40075810F12424BE5826003026F
:0242DF0040336A
:0742E1007400440060297421
:0542E800232400F9741D
:0542ED00433400FA90CB
:0642F2004323780075A0D3
:0D42F80000E493F2A308B8000205A0E582DF
:0B430500B501F1E583B502EC75A0FFE7
:084310007508FF7509FFE4F5D3
:054318000BF50AE4F5BD
:03431D000DF50C8F
:0343200002403325
:0540330012419480FE23
:08403800AA82AB837C007D002D
:0E404000C3EC9AED64808BF063F08095F05035
:01404E00076A
:07404F000CBC00ED0D80EA3E
:014056002247
:0E405700C0E0C0F0C082C083C002C003C0043D
:0C406500C0D075D000E50A2447F582E5C4
:0C4071000B3442F583E493FA908000F0D9
:0E407D00908000E0FA5302F0904245E493FB7D
:04408B00EAB503216E
:08408F00E50C7004E50D600270
:02409700801790
:09409900E50AB40204E50B600223
:0240A200800C90
:0840A400E4F509750803E4F5D9
:0440AC000D750C0181
:0E40B000908000E0FA5302F0904246E493FC48
:0440BE00EAB504213A
:0840C200E50C7004E50D60023D
:0240CA0080175D
:0940CC00E50AB40204E50B6002F0
:0240D500800C5D
:0840D700E4F509750801E4F5A8
:0440DF000D750C014E
:0A40E300908000E054F0FAB50321CC
:0840ED00E50C7004E50D600212
:0240F500801732
:0940F700E50AB40304E50B6002C4
:02410000800C31
:08410200E4F509750802E4F57B
:04410A000D750C0122
:0A410E00908000E054F0FAB50420A0
:08411800E50C7004E50D6002E6
:02412000801607
:09412200E50AB40304E50B600298
:02412B00800B07
:07412D00E4F509F508E4F5D3
:044134000D750C01F8
:084138007401250AF50AE435C3
:054140000BF50BE4F596
:054145000F750E04855A
:06414A000A82850B8312BE
:0B415000429CE5828583F0F50A85F0B3
:01415B000B58
:0E415C00D0D0D004D003D002D083D082D0F0D7
:03416A00D0E03270
:0E416D0075985053890F438920758BFD758D11
:0A417B00FD75884075878075A888DF
:014185002217
:0341860085829996
:08418900A299B3E433FA70F8C7
:02419100C299D1
:014193002209
:0341940012416D68
:05419700E50920E7FB33
:0C419C00C37403950874808509F063F07B
:0541A8008095F040EAE3
:0741AD00E50825E02508905C
:0341B40041B7739D
:0741B7000241C30241E202D4
:0541BE00420202422252
:0D41C3007582411241867582201241867579
:0941D00008FF7509FF9000281298
:0641D9004038E4F50DF58D
:0341DF000C80B59C
:0D41E2007582421241867582201241867559
:0941EF0008FF7509FF9000281279
:0641F8004038E4F50DF56E
:0441FE000C024197D7
:0D4202007582431241867582201241867537
:09420F0008FF7509FF9000281258
:064218004038E4F50DF54D
:04421E000C024197B6
:0D4222007582441241867582201241867516
:09422F0008FF7509FF9000281238
:064238004038E4F50DF52D
:04423E000C02419796
:014242002259
:04424300D0E070B0A7
:04424700FDFEF7FB86
:03424B0075820079
:01424E00224D
:08424F00E50E450F60467A01FF
:07425700E50E25E0F50EE580
:09425E000F334012F50FE58295C3
:0A4267000EE583950F40030A80E680
:03427100C3E50F93
:0742740013F50FE50E13F531
:01427B000E34
:0C427C00C3E582950EF5F0E583950F4038
:0642880005F58385F082BC
:07428E00C3E50F13F50FE576
:064295000E13F50EDAE144
:01429B002200
:0E429C00C2D5E58330E70DD2D5E4C39582F597
:0642AA0082E49583F58318
:0C42B000E50F30E70DB2D5E4C3950EF524
:0542BC000EE4950FF572
:0142C1000FED
:0E42C20012424F30D50BE4C39582F582E4958D
:0342D00083F583F0
:0142D30022C8
:00000001FF
