:0440000002472C3215
:01400B003282
:01401300327A
:01401B003272
:01402300326A
:01402B003262
:0B472C0075811012469CE582600302BC
:0247370040330D
:0747390074004400602974C4
:05474000702400F97473
:05474500473400FA906A
:06474A004770780075A025
:0D47500000E493F2A308B8000205A0E58282
:0B475D00B501F1E583B502EC75A0FF8B
:05476800E4F50DF50C65
:03476D00024033D4
:0540330012459580FE1E
:0C403800AA828A9074084AF590759000E6
:014044002259
:0E404500AA8274F05AFB8B9074084BF59075AC
:0E4053009000EAC454F0FA5302F08A90740808
:064061004AF59075900085
:014067002236
:0E406800AA8274F05AFB74044BF59074084B56
:0E4076004404F590E44404F590EAC454F0FAD2
:0E4084005302F074044AF59074084A4404F59F
:0640920090E44404F590E7
:014098002205
:08409900AA82AB837C007D00CC
:0E40A100C3EC9AED64808BF063F08095F050D4
:0140AF0014FC
:0440B0007E007F010E
:0540B4001EBEFF011F0C
:0440B900EE4F70F75F
:0740BD000CBC00E00D80DDEA
:0140C40022D9
:0E40C500758230124038900032124099758298
:0E40D30030124038900032124099758230123F
:0C40E10040389000321240997582201285
:0C40ED0040389000321240997582281271
:0C40F90040459000321240997582081278
:0C410500404590003212409975820E1265
:0C411100404590003212409975820E1259
:02411D0040451B
:01411F00227D
:06412000AA82AB83ACF0A3
:0C4126008A828B838CF01246C9FD602A4F
:0E4132008D82C002C003C004124068D004D0C9
:0D41400003D002900064C002C003C004124E
:0E414D004099D004D003D0020ABA00CD0B80F6
:01415B00CA99
:01415C002240
:0E415D00AA82AB83ACF01246C9FDA3AA82ABC6
:0E416B0083ACF08D82C002C003C00412406815
:0D417900D004D003D0028A828B838CF01218
:0841860046C9FA8A8212406862
:01418E00220E
:0E418F0075820112404590001412409975820D
:0E419D000212404590001412409975820D12D6
:0C41AB004045900014124099758280126B
:0841B7004045900032124099CE
:0141BF0022DD
:0D41C000AA8275F040EAA4FAABF0AC0E7DC7
:0D41CD0000EC2AFAED3BFB4302808A8212CF
:0841DA004045900014124099C9
:0141E20022BA
:0B41E300AA82AB83EB30E703024252DC
:0E41EE00C374099A74808BF063F08095F040E2
:0141FC00556D
:0841FD00EA25E02A9042057357
:0742050002422302422802DD
:06420C00422D02423202C5
:06421200423702423C02AB
:0642180042410242460291
:05421E00424B02424F7B
:05422300758230802AC5
:054228007582318025C4
:05422D007582328020C3
:05423200758233801BC2
:054237007582348016C1
:05423C007582358011C0
:05424100758236800CBF
:054246007582378007BE
:04424B00758238221E
:03424F007582393C
:014252002249
:0C425300AA82AB83EA2508FAEB3509FBD0
:0B425F00C3EA9418EB648094804008D0
:08426A00EA24E8FAEB34FFFB43
:0C427200E4F510750F0A8A828B83C002ED
:0E427E00C0031246F4E5828583F0D003D0021F
:0C428C00FCADF0E4F510750F0A8C828D7B
:0E42980083C002C003C004C00512467FAE8280
:0E42A600AF83D005D004D003D002EAC39EFE41
:0D42B400EB9FFF750E00758201C002C00374
:0E42C100C004C005C006C0071241C0D007D01F
:0E42CF0006D005D004D003D0028C828D83C0AF
:0E42DD0002C003C004C005C006C0071241E3C2
:0E42EB00D007D006D005D004D003D002C00208
:0E42F900C003C004C005C006C007124068D054
:0E43070007D006D005D004D003D0028E828FDE
:0E43150083C002C003C004C005C006C007126A
:0E43230041E3D007D006D005D004D003D0026D
:0D433100C002C003C004C005C006C00712D2
:0E433E004068D007D006D005D004D003D002CE
:0E434C0090464375F002C002C003C004C005D5
:0E435A00C006C007124120D007D006D005D003
:0B43680004D003D002AA0AAB0BE4F55E
:0C43730010750F0A8A828B83C002C00301
:0E437F00C004C005C006C0071246F4E58285E2
:0E438D0083F0D007D006D005D004D003D002B4
:0C439B00FCADF0E4F510750F0A8C828D6B
:0E43A70083C002C003C004C005C006C00712D8
:0E43B500467FA882A983D007D006D005D00489
:0E43C300D003D002EAC398FEEB99FF8C828DE6
:0E43D10083C006C0071241E3D007D006C00625
:0E43DF00C007124068D007D0068E828F83126E
:0543ED0041E3124068ED
:0143F20022A8
:0E43F300AA82AB83C002C00312418FD003D058
:0C44010002750E00758200C002C003129C
:0C440D0041C0D003D002BA0022BB001F47
:0E44190090464775F002C002C003124120D049
:0E44270003D002900000C002C003124253D026
:0344350003D002AF
:06443800BA0122BB001FC7
:0E443E0090465075F002C002C003124120D01B
:0E444C0003D002900002C002C003124253D0FF
:03445A0003D0028A
:06445D00BA0222BB001FA1
:0E44630090465775F002C002C003124120D0EF
:0E44710003D002900007C002C003124253D0D5
:03447F0003D00265
:06448200BA0322BB001F7B
:0E44880090465D75F002C002C003124120D0C4
:0E44960003D00290FFFFC002C003124253D0B9
:0344A40003D00240
:0644A700BA0422BB001F55
:0E44AD0090466475F002C002C003124120D098
:0E44BB0003D00290FFFBC002C003124253D098
:0344C90003D0021B
:0644CC00BA0522BB001F2F
:0E44D20090466C75F002C002C003124120D06B
:0E44E00003D002900001C002C003124253D06C
:0344EE0003D002F6
:0644F100BA0622BB001F09
:0E44F70090467275F002C002C003124120D040
:0E45050003D002900005C002C003124253D042
:0345130003D002D0
:06451600BA0712BB000F02
:0D451C0090467875F00212412090000412C4
:024529004253FB
:06452B00900064124099AB
:014531002267
:0A453200E50CB4F452E50DB4014DA0
:08453C007401250AF50AE435BB
:054544000BF50BE4F58E
:074549000DF50CC3743B9556
:0C4550000A7480850BF063F08095F05039
:01455C00104E
:08455D00E4F50BF50A740125D9
:0545650008F508E43533
:03456A0009F50947
:0C456D00C37417950874808509F063F092
:054579008095F0500BDD
:08457E0074012508F508E4357D
:0345860009F5092B
:084589007401250CF50CE4356A
:034591000DF50D18
:014594002204
:0A4595001240C59000641240991214
:09459F00418F9000641240991252
:0A45A800418F9001F4124099E4F5F0
:0645B2000975080EE4F596
:0445B8000B750A3243
:0445BC007A007B0006
:0E45C000C3EA9404EB64809480400302462E0C
:0D45CE008A04EBCC25E0CC33FDEC243BF55A
:0D45DB0082ED3446F583E493FCA3E493FDE8
:0E45E800908000ECF0908000E0FC530410BCCA
:0245F600000FB4
:0E45F8008A828B83C002C0031243F3D003D02B
:0146060002B1
:0B460700908000E0FC530420BC001475
:0E46120074042AF582E43BF583C002C0031253
:0646200043F3D003D002B9
:054626000ABA00010BBF
:03462B000245C085
:0A462E0090000A1240991245320272
:0246380045BC7F
:01463A00225D
:08463B00FE00FD00FB00F7008A
:04464300203A2000F9
:09464700576172737A617761001A
:074650004D6F736B776100F1
:06465700546F6B696F0057
:07465D004C6F6E64796E00E2
:084664004368696361676F00A0
:06466C004B696A6F770044
:0646720050656B696E004B
:074678004261676461640008
:0C467F00E582850FF0A4C582C0F0851014
:0D468B00F0A4D0F025F0C583850FF0A42524
:0446980083F5832201
:03469C0075820024
:01469F0022F8
:0546A0007A10E4FBFCB0
:0E46A500E58225E0F582E58333F583EB33FBF8
:0C46B300EC33FCEB950FF5F0EC9510409B
:0746BF0006FCABF043820191
:0346C600DADD2218
:0E46C900C8C0E0E5F060111460131460131413
:0A46D70060131414600474FF800ED9
:0546E100A882E680093B
:0346E600E080066B
:0346E900938003B8
:0346EC00A882E2BF
:0446EF00F8D0E0C857
:0146F30022A4
:0E46F400C2D5E58330E70DD2D5E4C39582F53B
:0647020082E49583F583BB
:0C470800E51030E70DB2D5E4C3950FF5C5
:054714000FE49510F513
:01471900108F
:0E471A001246A030D50BE4C39582F582E495DB
:0347280083F58393
:01472B00226B
:00000001FF
