:04400000024732320F
:01400B003282
:01401300327A
:03401B000240E67A
:01402300326A
:01402B003262
:0B473200758126124648E582600302F4
:02473D00403307
:07473F0074004400602974BE
:05474600962400F97447
:05474B00473400FA9064
:064750004796780075A0F9
:0D47560000E493F2A308B8000205A0E5827C
:0B476300B501F1E583B502EC75A0FF85
:08476E00750808750904E4F563
:0547760017F516E4F543
:05477B0019F518E4F53A
:054780001BF51AE4F531
:044785001DF51C758D
:074789001ECC751F5BE4F577
:0347900021F520F0
:03479300024033AE
:054033001244F980FEBB
:0C403800AA828A90AB08EB4AF590E508DC
:03404400B40100C4
:06404700E433FB5AF59082
:01404D002250
:0D404E00AA8274F05AFB8B90AC08EC4BF585
:06405B0090E508B401002D
:0E406100E433FC5BF590EAC454F0FA5302F02D
:0C406F008A90AB08EB4AF590EC5AF590F3
:01407B002222
:0D407C00AA8274F05AFBAC09EC4BF590AC35
:0B40890008EB4204AD09ED4CF590E59A
:0440940008B401006B
:0D409800E433FC5203AD09ED4BF590EAC492
:0D40A50054F0FA5302F0AB09EB4AF590AB72
:0C40B20008EA4203AD09ED4BF590EA521C
:0740BE0004AA09EA4CF59089
:0140C50022D8
:0840C600AA82AB837C007D009F
:0E40CE00C3EC9AED64808BF063F08095F050A7
:0140DC0008DB
:0840DD00000CBC00EC0D80E9B1
:0140E50022B8
:0E40E600C0E0C0F0C082C083C0D075D00074AE
:0740F400012522F522E4354D
:0440FB0023F523E5A1
:0540FF0022B51E15E5CD
:0441040023B51F10B0
:08410800E4F523F52274012502
:0541100014F514E43574
:0341150015F51588
:0B411800D0D0D083D082D0F0D0E032B5
:0E41230075985053890F438920758BFD758D5B
:0E413100FD75884075878075A88875823012EC
:0C413F0040389000641240C675823012B7
:0C414B0040389000641240C675823012AB
:0C41570040389000641240C675822012AF
:0C41630040389000641240C675822F1294
:0C416F00404E9000641240C67582081299
:0C417B00404E9000641240C675820C1289
:0C418700404E9000641240C67582061283
:08419300404E9000641240C68A
:01419B002201
:06419C00AA82E524600286
:0241A200800497
:0441A4007B8080029A
:0241A8007BC0DA
:0841AA00EA42038B8212404E31
:0141B20022EA
:0941B300E514B43B04E5156002BB
:0241BC00803D44
:0841BE0074012512F512E4352D
:0541C60013F513E4F500
:0441CB0015F514E5ED
:0841CF0012B43C04E513600288
:0241D700803B2B
:0841D90074012510F510E43516
:0541E10011F511E4F5E9
:0441E60013F512E5D6
:0841EA0010B41804E511600295
:0241F20080202B
:0741F400E4F511F51080193C
:0741FB00E4F52675253B8564
:06420200148285158312F1
:0B42080046C2E5828583F0F51485F0C6
:014213001595
:014214002287
:074215001241B3E4F5267528
:06421C00250A85108285D1
:0D42220011831246FAE5828583F02430FAFC
:0E422F00E5F03400FB8A8212407C900064129D
:06423D0040C6E4F5267501
:06424300250A85108285AA
:0D42490011831246C2E5828583F02430FA0D
:0E425600E5F03400FB8A8212407C9000641276
:0C42640040C675823A12407C9000641243
:0642700040C6E4F52675CE
:06427600250A8512828575
:0D427C0013831246FAE5828583F02430FAA0
:0E428900E5F03400FB8A8212407C9000641243
:0642970040C6E4F52675A7
:06429D00250A851282854E
:0D42A30013831246C2E5828583F02430FAB1
:0E42B000E5F03400FB8A8212407C900064121C
:0C42BE0040C675823A12407C90006412E9
:0642CA0040C6E4F5267574
:0642D000250A8514828519
:0D42D60015831246FAE5828583F02430FA44
:0E42E300E5F03400FB8A8212407C90006412E9
:0642F10040C6E4F526754D
:0642F700250A85148285F2
:0D42FD0015831246C2E5828583F02430FA55
:0E430A00E5F03400FB8A8212407C90006412C1
:0943180040C675240075820012F4
:0C432100419C9000641240C690006412A1
:02432D0040C688
:01432F00226B
:024330007A0011
:06433200E516B51007E5D9
:0643380017B5110280031D
:03433E0002442511
:06434100E518B51207E5C6
:0643470019B5130280030A
:03434D0002442502
:09435000E51AB40104E51B600349
:03435900024425F6
:08435C00E51C7004E51D60037F
:03436400024425EB
:064367008A037C007D00CA
:0E436D00C3EC9464ED64809480E433FE8B0214
:03437B00EE601FD2
:07437E0074015BFFBF0004A6
:04438500D2B480022C
:02438900C2B4BC
:03438B000B7F00A5
:03438E00BF0A0063
:024391005003D7
:034393000F80F8A0
:054396000CBC00010D4C
:02439B0080D0D0
:0B439D00908000E0FB530308BB0015FC
:0843A800E4F51D751C01E4F5AC
:0943B0001BF51A758201C002120E
:0443B900404ED002A0
:0B43BD00908000E0FB530301BB0024D4
:0B43C80074012516FBE43517FCE4F53A
:0B43D300267525188B828C83C0021217
:0D43DE0046C2E5828583F0D002F51685F019
:0143EB0017BA
:0B43EC00908000E0FB530302BB0024A4
:0B43F70074012518FBE43519FCE4F507
:0B4402002675253C8B828C83C00212C3
:0D440D0046C2E5828583F0D002F51885F0E7
:01441A001988
:0A441B00C002124215D00202433223
:014425002274
:09442600E51AB40104E51B600372
:03442F000244F84C
:0B44320075240175820012419CE4F526
:05443D002675250A852B
:06444200168285178312AB
:0E44480046FAE5828583F02430FAE5F0340070
:0E445600FB8A8212407C9000641240C6E4F59E
:054464002675250A8504
:0644690016828517831284
:0E446F0046C2E5828583F02430FAE5F0340081
:0E447D00FB8A8212407C9000641240C6758259
:0C448B003A12407C9000641240C6E4F538
:054497002675250A85D1
:06449C001882851983124D
:0E44A20046FAE5828583F02430FAE5F0340016
:0E44B000FB8A8212407C9000641240C6E4F544
:0544BE002675250A85AA
:0644C30018828519831226
:0E44C90046C2E5828583F02430FAE5F0340027
:0D44D700FB8A8212407C9000641240C67582
:0C44E400240075820012419C90006412BC
:0844F00040C69000641240C6B2
:0144F80022A1
:0744F900124123E4F523F555
:0B450000229000641240C67582011278
:0C450B00404E9000641240C69000641204
:0A45170040C69000641240C6E4F5AF
:064521001175100BE4F51A
:064527001375121EE4F5FD
:05452D001575143712A2
:02453200421530
:08453400E51A7004E51B6003A9
:03453C000245C372
:0B453F00908000E0FA530201BA002057
:0B454A0074012510FAE43511FBE4F5C4
:09455500267525188A828B831259
:0B455E0046C2E5828583F0F51085F071
:014569001140
:0B456A00908000E0FA530202BA00202B
:0B45750074012512FAE43513FBE4F595
:094580002675253C8A828B83120A
:0B45890046C2E5828583F0F51285F044
:014594001313
:0B459500908000E0FA530204BA000519
:0545A000E4F515F5141F
:0D45A500908000E0FA530208BA0002800383
:0345B20002463B83
:0845B500E4F51B751A01E4F5A1
:0445BD001DF51C02CA
:0245C100463B77
:0945C300E51AB40104E51B6003D4
:0345CC0002463B69
:0B45CF00908000E0FA530201BA0020C7
:0B45DA0074012516FAE43517FBE4F528
:0945E500267525188A828B8312C9
:0B45EE0046C2E5828583F0F51685F0DB
:0145F90017AA
:0B45FA00908000E0FA530202BA00209B
:0B46050074012518FAE43519FBE4F5F8
:094610002675253C8A828B831279
:0B46190046C2E5828583F0F51885F0AD
:01462400197C
:0B462500908000E0FA530208BA000B7E
:09463000E4F51BF51A7582011274
:02463900404EF1
:07463B001242151244261281
:05464200433002453485
:014647002250
:0346480075820078
:01464B00224C
:08464C00E525452660467A01D0
:07465400E52525E0F525E551
:09465B0026334012F526E5829594
:0A46640025E583952640030A80E651
:03466E00C3E5267B
:0746710013F526E52513F502
:01467800251C
:0C467900C3E5829525F5F0E58395264009
:0646850005F58385F082BB
:07468B00C3E52613F526E547
:064692002513F525DAE115
:0146980022FF
:054699007A10E4FBFCB7
:0E469E00E58225E0F582E58333F583EB33FBFF
:0C46AC00EC33FCEB9525F5F0EC95264076
:0746B80006FCABF043820198
:0346BF00DADD221F
:0E46C200C2D5E58330E70DD2D5E4C39582F56D
:0646D00082E49583F583EE
:0C46D600E52630E70DB2D5E4C39525F5CC
:0546E20025E49526F51A
:0146E70026AC
:0E46E80012464C30D50BE4C39582F582E49562
:0346F60083F583C6
:0146F900229E
:0E46FA00C2D5E58330E70DD2D5E4C39582F535
:0647080082E49583F583B5
:0C470E00E52630E70DB2D5E4C39525F593
:05471A0025E49526F5E1
:01471F002673
:0E47200012469930D50BE4C39582F582E495DC
:03472E0083F5838D
:014731002265
:00000001FF
